:020000040800F2
:100000004009002001010008C5250008452300081B
:10001000C125000817080008E12C000800000000B6
:100020000000000000000000000000002D26000875
:10003000890800080000000001260008C927000800
:100040001B0100081B0100081B0100081B01000820
:100050001B0100081B0100081B0100081B01000810
:100060001B0100081B0100081B0100081B01000800
:100070001B0100081B010008690800087908000836
:100080001B0100081B0100081B0100081B010008E0
:100090001B0100081B0100081B0100081B010008D0
:1000A0001B0100081B0100081B0100081B010008C0
:1000B00091280008A12800081B0100081B01000866
:1000C0001B0100081B0100081B0100081B010008A0
:1000D0001B010008D12C00081B0100081B010008AF
:1000E0001B0100081B0100081B010008DFF80CD0F1
:1000F00000F0C6FA0048004709380008400900200F
:100100000648804706480047FEE7FEE7FEE7FEE7B1
:10011000FEE7FEE7FEE7FEE7FEE7FEE73928000818
:10012000ED000008202A04DB203A21FA02F0002129
:10013000704721FA02F3D040C2F1200291400843F7
:1001400019467047D2B201E000F8012B491EFBD2DC
:1001500070470022F6E710B513460A4604461946D2
:10016000FFF7F0FF204610BD30B480EA010202F034
:10017000004530F0004221F0004013D090B1C30D93
:10018000D40DC2F31601C0F31600E41A41F40001C5
:1001900040F400027D34914201D3641C00E0490028
:1001A000002C02DA30BC002070474FF4000000231E
:1001B000914201D3891A034340084FEA4101F7D124
:1001C00051B1914202D14FF0004105E002D24FF00F
:1001D000010101E06FF0010103EBC450284430BC81
:1001E00000F05FB896230022114600F063B800F0DB
:1001F000004230F000400AD0C10D01F56071C0F33B
:10020000160042EA0151C20840071143704700201E
:100210000146704730B50B460146002020220124DC
:1002200009E021FA02F59D4205D303FA02F5491BC4
:1002300004FA02F52844151EA2F10102F1DC30BDDA
:100240002DE9F05F0546002092469B46884606460B
:10025000814640241BE02846414647462246FFF798
:1002600061FF53465A46C01A914110D311461846B1
:10027000224600F017FA2D1A67EB01084F46224676
:100280000120002100F00EFA17EB00094E41201E5C
:10029000A4F10104DFDC484631462A464346BDE866
:1002A000F09F0029A8BF7047401C490008BF20F0FC
:1002B0000100704710B4B0FA80FC00FA0CF050EA6C
:1002C000010404BF10BC704749B1CCF1200421FAED
:1002D00004F411FA0CF118BF012121430843A3EBE8
:1002E0000C01CB1D4FEA00614FEA102042BF0020F5
:1002F00010BC704700EBC35010440029A4BF10BCD1
:100300007047401C490008BF20F0010010BC704736
:100310002DE9FE4F804681EA0300C00F0C46009095
:1003200021F0004123F00045B8EB0200A94105D2BD
:100330004046214690461C460B46024623F00040AC
:10034000104347D0270DC7F30A00C3F30A510290A8
:10035000401A019040286BDAC3F3130040F4801B6D
:100360000098924620B10023D2EB030A63EB0B0BFB
:1003700001985946C0F14002504600F093F90646F4
:100380000D4650465946019A00F09BF910EB0800C3
:100390006141002487EA115284EAE7731A4340D08E
:1003A000009A62B3019A012A4FEA075215DC001B3A
:1003B00061EB02014FF0004202EA0752CDE9004230
:1003C000001C41F5801132462B4600F09BF903B02A
:1003D000BDE8F08F40462146F9E7001B61EB0201C2
:1003E000001C41F5801300185B412018A2F500178E
:1003F00047EB030140EAD570B6196D4111E06D0875
:100400004FEA360645EAC0754FEA0752001B61EB1A
:100410000201001C41F5801149084FEA3000001923
:10042000514132462B4603B0BDE8F04F00F05BB9B6
:100430000098012240000023D0EB020263EBE0733E
:10044000009821464FEAE074B8EB000061EB04012C
:10045000E9E783F000435BE781F0004158E72DE9CD
:10046000FE4F81EA030404F0004421F000410094AF
:100470004FF0000B23F0004350EA01045ED052EA33
:1004800003045BD0C3F30A54C1F30A552C44A4F20D
:10049000F3340194A0FB0254C1F3130141F4801121
:1004A000C3F3130343F4801301FB024400FB034E28
:1004B000840A970A44EA815447EA8357A4FB0768F1
:1004C00002958D0A05FB07854FEA932C04FB0C541B
:1004D0002705029D4FEA065847EA1637B5EB08058F
:1004E0006EEB070C870E920E47EA811742EA8312E1
:1004F000A7FB0201B6EB0B0164EB00042B0D43EAF2
:100500000C335E1844EB1C50DA465146E7FB0201FF
:10051000C5F313044FEA0B3343EA14534FEA043292
:10052000019C43EA0603A4F10C040294009CCDE96B
:1005300000B400F0E7F803B0BDE8F08F00200146FA
:10054000F9E72DE9F04D81EA030404F0004B21F0B6
:10055000004514464FF0000A23F0004150EA05021E
:1005600020D054EA01021DD0C5F30A570246C5F354
:100570001303C1F31300C1F30A5640F4801543F48A
:100580008013A7EB0608101BD64608F2FD3873EB64
:10059000050002D308F1010801E092185B41B8F1AF
:1005A000000F03DA00200146BDE8F08D00204FF473
:1005B0008011064684460EE0171B73EB050705D332
:1005C000121B63EB050306434CEA010C49084FEA92
:1005D000300092185B4150EA0107EDD152EA030066
:1005E00012D082EA040083EA0501084305D0101BFB
:1005F000AB4106D20122002306E000224FF0004367
:1006000002E06FF0010253101AEB06004CEB0851A8
:1006100010EB0A0041EB0B01BDE8F04D00F063B8B0
:10062000C1F30A52C1F3130140F2FF3341F48011C8
:100630009A4202DA00200146704740F233439A4260
:10064000A2F2334202DC5242FFF76CBD00F02AB83E
:1006500030B5041E71F1000404DB4FF00044404249
:1006600064EB0101141E73F1000405DB1C464FF01E
:100670000043524263EB0403994208BF904230BDED
:10068000064C074D06E0E06840F0010394E80700DF
:1006900098471034AC42F6D3FFF72CFD1840000801
:1006A00038400008202A04DB203A00FA02F100203A
:1006B00070479140C2F1200320FA03F319439040A0
:1006C0007047202A06DBCB17203A41FA02F043EAB2
:1006D000E07306E041FA02F3D040C2F120029140FB
:1006E00008431946704710B5141E73F1000408DA68
:1006F000401C41F1000192185B411A4301D120F0E6
:10070000010010BD2DE9F04D92469B4611B1B1FAA2
:1007100081F202E0B0FA80F220329046FFF7C2FF89
:1007200004460F4640EA0A0041EA0B0153465A4686
:10073000084313D0114653EA010019D0C8F1400212
:100740005046FFF7EFFC05460E46504659464246D6
:10075000FFF7A8FF084305D0012004E020463946F2
:10076000BDE8F08D0020054346EAE0762C43374390
:100770000A986305E40AA0EB08000022FD0A44EA97
:1007800047540A3002D500200146E9E70105101957
:100790006941DDE9084500196941BDE8F04DA2E76E
:1007A00070B58C1810F8015B15F0070301D110F833
:1007B000013B2A1106D110F8012B03E010F8016B60
:1007C00001F8016B5B1EF9D12B0705D40023521EE3
:1007D0000DD401F8013BFAE710F8013BCB1A921C4B
:1007E00003E013F8015B01F8015B521EF9D5A14249
:1007F000D8D3002070BD2DE9F04104460D461646C1
:100800001F46F1B2E0B201F012FFF9B2E8B201F016
:10081000B2FFBDE8F08100BFFEE70000002004E069
:100820000021034A1154411CC8B28028F8DB7047EC
:10083000D003002070B506463F21002001F0F7FEEE
:100840003F21002001F097FF00240AE0002504E08A
:10085000304602F087FA681CC5B2402DF8DB601CF8
:10086000C4B2402CF2DB70BD10B5024800F084FA2F
:1008700010BD00008C03002010B5024800F07CFA87
:1008800010BD000048030020704700002DE9F0472C
:1008900081460E4617464FF00008A9F131000628A0
:1008A0002FD2DFE800F0032F5B88B5E2FB1DF21CBE
:1008B00039463046FFF79FFF002420E000251AE06C
:1008C0008548005D6A0080211141084008B14FF061
:1008D0000F088148005D012101EB45028021114193
:1008E000084008B148F0F008404602F03BFA4FF0EB
:1008F0000008681CC5B2042DE2DB601CC4B2072CE2
:10090000DCDBE5E0FB1DF21C39463046FFF773FFE8
:10091000002420E000251AE06F48005D6A00802175
:100920001141084008B14FF00F086B48005D0121EC
:1009300001EB450280211141084008B148F0F00860
:10094000404602F00FFA4FF00008681CC5B2042DB3
:10095000E2DB601CC4B2082CDCDBB9E007F10B035E
:10096000F21C39463046FFF746FF002420E0002500
:100970001AE05948005D6A0080211141084008B121
:100980004FF00F085448005D012101EB4502802122
:100990001141084008B148F0F008404602F0E2F981
:1009A0004FF00008681CC5B2042DE2DB601CC4B225
:1009B0000C2CDCDB8CE007F10F03F21C39463046CF
:1009C000FFF719FF002420E000251AE04248005DEF
:1009D0006A0080211141084008B14FF00F083E48DD
:1009E000005D012101EB450280211141084008B161
:1009F00048F0F008404602F0B5F94FF00008681CD6
:100A0000C5B2042DE2DB601CC4B2102CDCDB5FE05D
:100A100007F11703F21D39463046FFF7ECFE0024BC
:100A200020E000251AE02C48005D6A008021114179
:100A3000084008B14FF00F082748005D012101EB85
:100A4000450280211141084008B148F0F0084046B5
:100A500002F088F94FF00008681CC5B2042DE2DBF3
:100A6000601CC4B2302CDCDB32E007F11F03F21D46
:100A700039463046FFF7BFFE002426E0002520E07F
:100A80001548005D6A0080211141084010B14FF007
:100A90000F0801E04FF000080F48005D012101EB55
:100AA000450280211141084010B148F0F00801E0F2
:100AB0004FF00008404602F055F94FF00008681C5E
:100AC000C5B2042DDCDB601CC4B2402CD6DB00BFF9
:100AD00000BFBDE8F0870000D00300202DE9FF4FE4
:100AE00085B099464FF0000AD34600200190FFF7E9
:100AF00095FE0598313806283AD2DFE800F0030C5D
:100B0000151E27303C480190082507274FF005089F
:100B1000062401262CE039480190082508274FF0CB
:100B200007080824012623E0354801900C250C27EE
:100B30004FF00608062402261AE0324801901025DC
:100B400010274FF008080824022611E02E480190D3
:100B5000302518274FF00C080C24032608E02B48FA
:100B60000190402520274FF010081024042600BFD4
:100B700000BF3AE004EBD4714910C1F1400206997C
:100B80008A4204D20798304407900020069019F852
:100B90000A00202829DB19F80A007E2825DC19F82C
:100BA0000A00A0F1200B01980BFB050BCBF30740CB
:100BB0000490CBF3072003900BF0FF000290144B3E
:100BC0000095DDE90221049802F0EAFD05A807C8B6
:100BD000FFF75CFE0AF1010000F0FF0A204604EB7B
:100BE000D0714A1006991144069119F80A0000289C
:100BF000C0DC09B0BDE8F08F80DF1D0080E21D0081
:100C000000BE1D0080D71D0000FF1D00505A1E00B1
:100C1000D00300202DE9F04107460C4615461E463C
:100C2000DDF81880242002F05DF8384602F05AF80A
:100C3000284602F057F8204602F054F8304602F0F9
:100C400051F8404602F04EF8C82003F0D1F9BDE853
:100C5000F081704738B50446012000F008F83F23C2
:100C60000022194610460094FFF7D4FF38BD10B596
:100C70000446232002F036F8204602F033F810BD77
:100C80001FB54FF4006000900120019000200290F9
:100C9000022003906946024800F084F91FBD00005D
:100CA000000C01401FB54FF400600090002001903F
:100CB00001200290022003906946024800F072F978
:100CC0001FBD0000000C014070B50446002594F8DB
:100CD0002100022803D00420A063012548E02068F9
:100CE000006820F00E00216808602068006820F08D
:100CF0000100216808601F492068884201D1012055
:100D000026E01C4914312068884201D110201FE0E0
:100D1000184928312068884201D1801518E015490A
:100D20003C312068884201D1801411E011495031D2
:100D30002068884202D14FF4803009E00D496431C7
:100D40002068884202D14FF4801001E04FF080709B
:100D5000084908394860012084F8210000BF0020BC
:100D600084F8200000BF606B10B12046616B88479B
:100D7000284670BD0800024070B50446E06B056867
:100D80002068066894F84010042088402840002815
:100D900046D006F00400002842D02068006800F029
:100DA000200028B92068006820F00400216808604D
:100DB00057492068884201D1042027E05449143162
:100DC0002068884201D1402020E051492831206824
:100DD000884201D1001519E04D493C312068884214
:100DE00002D14FF4804011E04949503120688842D7
:100DF00002D14FF4802009E04549643120688842DF
:100E000002D14FF4800001E04FF080604049083982
:100E10004860E06A00287AD02046E16A884776E098
:100E200094F84010022088402840A0B306F0020049
:100E300088B32068006800F0200040B9206800688E
:100E400020F00A0021680860012084F82100304960
:100E50002068884201D1022028E02D491431206801
:100E6000884201D1202021E0294928312068884288
:100E700001D140151AE026493C312068884202D150
:100E80004FF4005012E0224950312068884203D1CB
:100E90004FF400300AE017E01D49643120688842B1
:100EA00002D14FF4001001E04FF0007018490839EA
:100EB000486000BF002084F8200000BFA06A30B363
:100EC0002046A16A884722E094F840100820884014
:100ED0002840E0B106F00800C8B12068006820F0A2
:100EE0000E002168086094F8401001208840E16BF2
:100EF00048600120A06384F8210000BF002084F82E
:100F0000200000BF206B10B12046216B884770BDC8
:100F1000080002400146002209B901207047164B23
:100F20000868C01A1423B0FBF3F08000086412486C
:100F30000838C863022081F821000868026843F677
:100F4000F0708243D1E901031843CB6818430B6961
:100F500018434B6918438B691843CB691843024304
:100F60000868026000208863012081F821000020C9
:100F700081F8200000BFD1E70800024070B50446A8
:100F800000F0ACF906462546681C10B1044800780C
:100F9000054400BF00F0A2F9801BA842FAD370BD3F
:100FA000800200202DE9F847034600240020002598
:100FB0008446002700226EE14FF0010808FA02F48F
:100FC000D1F8008008EA0400A0427DD1DFF8D0A269
:100FD000D1F80480A8EB0A09D0453AD014DCB8F166
:100FE000030F50D009DCB8F1000F31D0B8F1010F78
:100FF0001CD0B8F1020F49D120E0B8F1110F18D080
:10100000B8F1120F42D11EE0B9F5881F25D006DCD9
:10101000B9F5803F20D0B9F5801F37D11AE0B9F576
:10102000001F18D0B9F5041F30D117E0D1F80CC05B
:101030002DE0D1F80C8008F1040C28E0D1F80C80E8
:1010400008F1080C23E0D1F80C8008F10C0C1EE02C
:1010500000BF00BF00BF00BF00BF00BFD1F80880C5
:10106000B8F1000F02D14FF0040C0BE0D1F808806A
:10107000B8F1010F03D14FF0080C1C6102E04FF0F2
:10108000080C5C6103E04FF0000C00E000BF00BF03
:10109000FF2801D8984601E003F104084646FF28DE
:1010A00002D84FEA820803E0A2F108084FEA880854
:1010B0004746D6F800804FF00F0909FA07F928EAE9
:1010C00009080CFA07F900E088E048EA0908C6F8C0
:1010D0000080D1F8048008F08058B8F1805F7DD19D
:1010E00000BFDFF8C081D8F8188048F00108DFF8A9
:1010F000B491C9F81880C846D8F8188008F00108DB
:10110000CDF8008000BF00BF4FEAB9384FEA92091E
:1011100058F829504FEA82784FEA18794FF00F08B3
:1011200008FA09F825EA0805DFF87C81434502D171
:101130004FF0000816E0DFF87481434502D14FF00C
:1011400001080FE0DFF86881434502D14FF0020843
:1011500008E0DFF86081434502D14FF0030801E069
:101160004FF004084FEA82794FEA197908FA09F832
:1011700048EA0505DFF840814FEA920948F829500E
:10118000D1F8048008F48038B8F5803F0AD1DFF840
:101190002C81D8F8008048EA0008DFF82091C9F8CF
:1011A000008009E0DFF81481D8F8008028EA000800
:1011B000DFF80891C9F80080D1F8048008F40038FD
:1011C000B8F5003F10D1DFF8F48008F10408D8F832
:1011D000008048EA0008DFF8E49000E05AE009F1F6
:1011E0000409C9F800800DE0DFF8D08008F1040898
:1011F000D8F8008028EA0008DFF8C09009F1040957
:10120000C9F80080D1F8048008F48018B8F5801F70
:101210000ED1DFF8A88008F10808D8F8008048EA65
:101220000008DFF8989009F10809C9F800800DE07E
:10123000DFF8888008F10808D8F8008028EA00085C
:10124000DFF8789009F10809C9F80080D1F8048026
:1012500008F40018B8F5001F0ED1DFF8608008F11F
:101260000C08D8F8008048EA0008DFF8509009F12F
:101270000C09C9F800800DE0DFF8408008F10C0887
:10128000D8F8008028EA0008DFF8309009F10C094E
:10129000C9F80080521C102AFFF48EAEBDE8F88712
:1012A000000011100010024000080140000C014035
:1012B00000100140001401400800014000040140FA
:1012C000024693680B400BB1012000E000207047FC
:1012D0000AB1016101E00B04036170470148006835
:1012E000704700007802002003480068034909782D
:1012F00008440149086070477802002080020020FD
:1013000010B50848006840F0100006490860032046
:1013100000F0A6F8002000F007F800F02BF80020FD
:1013200010BD00000020024070B504460E48007851
:101330004FF47A71B1FBF0F00C490968B1FBF0F59C
:10134000284600F019FC08B1012070BD102C07D20E
:1013500000222146501E00F044F80548046001E0D8
:101360000120F2E70020F0E7800200208402002044
:101370007C02002008B500BF1148806940F00100E0
:101380000F4988610846806900F00100009000BFA5
:1013900000BF00BF0846C06940F08050C8610846E1
:1013A000C06900F08050009000BF00BF00BF054939
:1013B000486820F0E06040F00070486000BF08BD61
:1013C000001002400000014000BF00F01F02012198
:1013D00091404209920002F1E022C2F8001100BFE0
:1013E00070472DE9F05F80460D461646002701F054
:1013F000EBF8074639462A46334601F00700C0F1AC
:10140000070ABAF1040F02D94FF0040A01E0C0F153
:10141000070AD14600F1040ABAF1070F02D24FF0D1
:10142000000A01E0A0F1030AD4464FF0010A0AFACB
:1014300009FAAAF1010A0AEA020A0AFA0CFA4FF0BA
:10144000010B0BFA0CFBABF1010B0BEA030B4AEAA5
:101450000B042146404601F0BFF8BDE8F09F0000B4
:1014600000BF00F00702064B19684FF6FF03194052
:10147000044B0B4343EA0221014B196000BF704744
:101480000CED00E00000FA0570B504460D4600269C
:101490006D48006800F00700A8420ED26A48006854
:1014A00020F007002843684908600846006800F0FB
:1014B0000700A84201D0012070BD207800F0020092
:1014C00002281DD1207800F00400042805D15F48CF
:1014D000406840F4E0605D494860207800F0080012
:1014E000082805D15948406840F460505749486081
:1014F0005648406820F0F000A1680843534948600E
:10150000207800F0010000285DD06068012806D135
:101510004E48006800F4003090B90120CCE76068C4
:10152000022806D14948006800F0007040B9012047
:10153000C2E74648006800F0020008B90120BBE796
:101540004248406820F00300616808433F49486012
:10155000FFF7C4FE06466068012810D108E0FFF7D7
:10156000BDFE801B41F28831884201D90320A3E7E8
:101570003648406800F00C000428F0D123E0606891
:10158000022810D108E0FFF7A9FE801B41F2883144
:10159000884201D903208FE72C48406800F00C00F6
:1015A0000828F0D10FE008E0FFF798FE801B41F219
:1015B0008831884201D903207EE72448406800F042
:1015C0000C000028F0D12048006800F00700A84275
:1015D0000ED91D48006820F0070028431A4908600A
:1015E0000846006800F00700A84201D0012063E728
:1015F000207800F00400042807D11448406820F443
:10160000E060E168084311494860207800F0080074
:10161000082808D10D48406820F46050216940EA4C
:10162000C1000A49486000F03DF808494968C1F323
:101630000311074A515CC840064908600020FFF7C3
:1016400073FE002038E70000002002400010024036
:10165000FE3F000884020020014800687047000037
:101660008402002000B5FFF7F7FF04494968C1F381
:101670000221034A515CC84000BD00000010024036
:101680000E40000800B5FFF7E7FF04494968C1F3C1
:10169000C221034A515CC84000BD00000010024056
:1016A0000E400008F0B585B00FF26C0C9CE8E0101D
:1016B00001A8A0E8E0101CA52D68009500210022DB
:1016C000002300240020194D696801F00C05F5B1D4
:1016D000042D02D0082D19D101E0154819E001AD03
:1016E000C1F38346AC5D01F4803555B10F4D6D6893
:1016F000C5F340451DF805200D4D6543B5FBF2F3DC
:1017000002E00C4D04FB05F3184602E000BF084858
:1017100000BF00BF05B0F0BD0203040506070809BD
:101720000A0B0C0D0E0F10100102000000100240F9
:1017300000127A0000093D00F8B504460025207823
:1017400000F00100002878D0F848406800F00C0054
:1017500004280CD0F548406800F00C00082811D18E
:10176000F248406800F48030B0F5803F0AD1EF487D
:10177000006800F4003000285FD0606800285CD169
:101780000120F8BD00BF6068B0F5803F06D1E74892
:10179000006840F48030E549086028E0606858B986
:1017A000E248006820F48030E0490860084600689C
:1017B00020F4802008601AE06068B0F5A02F0BD1FB
:1017C000DA48006840F48020D8490860084600687C
:1017D00040F4803008600AE0D448006820F480308B
:1017E000D24908600846006820F48020086000BFE5
:1017F000606888B1FFF772FD054606E0FFF76EFDF1
:10180000401B642801D90320BBE7C848006800F4E6
:1018100000300028F2D010E0FFF760FD054606E03A
:10182000FFF75CFD401B642801D90320A9E7BF48EE
:10183000006800F400300028F2D1207800F00200A7
:10184000022857D1B948406800F00C0050B1B748A1
:10185000406800F00C00082818D1B448406800F433
:10186000803098B9B148006800F0020020B12069CA
:10187000012801D0012084E7AC48006820F0F8007E
:10188000616940EAC100A949086033E02069E8B114
:101890000120A7490860FFF721FD054606E0FFF794
:1018A0001DFD401B022801D903206AE79F480068FC
:1018B00000F002000028F2D09C48006820F0F800F8
:1018C000616940EAC1009949086013E00020984925
:1018D0000860FFF703FD054606E0FFF7FFFC401B2D
:1018E000022801D903204CE79048006800F002006C
:1018F0000028F2D1207800F0080008282DD1A06936
:10190000B8B101208B490860FFF7E8FC054606E006
:10191000FFF7E4FC401B022801D9032031E783488C
:10192000406A00F002000028F2D0012000F06AFEB8
:1019300013E000207F490860FFF7D0FC054606E071
:10194000FFF7CCFC401B022801D9032019E7774898
:10195000406A00F002000028F2D1207800F0040074
:10196000042873D100267148C06900F0805070B916
:1019700000BF6E48C06940F080506C49C86108469D
:10198000C06900F08050009000BF00BF01266A4887
:10199000006800F48070B0B96748006840F4807057
:1019A00065490860FFF79AFC054606E0FFF796FCDC
:1019B000401B642801D90320E3E65F48006800F477
:1019C00080700028F2D000BFE068012806D1574897
:1019D000006A40F001005549086227E0E06858B904
:1019E0005248006A20F00100504908620846006A27
:1019F00020F00400086219E0E06805280BD14B488C
:101A0000006A40F00400494908620846006A40F054
:101A1000010008620AE04548006A20F001004349DD
:101A200008620846006A20F00400086200BFE0680F
:101A3000A0B1FFF753FC054609E0FFF74FFC401B40
:101A400041F28831884202D903209AE622E03748E1
:101A5000006A00F002000028EFD012E0FFF73EFC21
:101A6000054608E0FFF73AFC401B41F28831884206
:101A700001D9032085E62D48006A00F00200002805
:101A8000F0D1012E05D12948C06920F080502749A6
:101A9000C86100BFE069C8B32448406800F00C008A
:101AA000082860D0E069022848D100202049086653
:101AB000FFF714FC054606E0FFF710FC401B022868
:101AC00001D903205DE61948006800F00070002885
:101AD000F2D1206AB0F5803F07D11448406820F465
:101AE0000030A168084311494860D4E9080108435F
:101AF0000E49496821F4741108430C4948600120DB
:101B00000B490866FFF7EAFB054607E02DE0FFF703
:101B1000E5FB401B022801D9032032E60348006898
:101B200000F000700028F2D01FE00000001002401A
:101B300000004242800442420070004000200C49F4
:101B40000866FFF7CBFB054606E0FFF7C7FB401B27
:101B5000022801D9032014E60648006800F000704E
:101B60000028F2D101E001200BE6002009E6000088
:101B7000000042420010024070B504462546681E2F
:101B8000B0F1807F01D301200FE0681E4FF0E0210B
:101B900048610F214FF0FF3000F01EFD00204FF094
:101BA000E021886107200861002070BD7047704700
:101BB000024600BF92F83C00012801D10220704784
:101BC000012082F83C0000BF022082F83D0010682E
:101BD000406820F0700013685860106840680B6817
:101BE0001843136858601068806820F080001368FC
:101BF0009860106880684B681843136898600120EB
:101C000082F83D0000BF002082F83C0000BF00BF0A
:101C1000D5E710B504460CB9012010BD94F83D007D
:101C200028B9002084F83C00204600F00DF802207E
:101C300084F83D00211D206800F03AFE012084F860
:101C40003D000020E9E7000038B504462068B0F107
:101C5000804F16D100BF1848C06940F001001649F6
:101C6000C8610846C06900F00100009000BF00BFD5
:101C7000002211461C20FFF7B4FB1C20FFF7A4FB39
:101C800019E00E492068884215D100BF0A48C06992
:101C900040F002000849C8610846C06900F002002F
:101CA000009000BF00BF002211461D20FFF799FBE6
:101CB0001D20FFF789FB38BD0010024000040040E2
:101CC00001460868C06840F001000A68D0600868F2
:101CD000006840F001000A681060002070472DE99C
:101CE000F04104460D46002600BF94F83C00012850
:101CF00002D10220BDE8F081012084F83C0000BF41
:101D0000022084F83D002068866826F0770626F4D5
:101D10007F4620688660286850283BD00CDC20284D
:101D200060D004DC002853D0102865D155E030285D
:101D30005DD0402860D141E0602835D070280DD0BA
:101D4000B0F5805F03D0B0F5005F55D115E0206895
:101D5000806820F00700216888604EE0D5E9021312
:101D60006A68206800F0DEFD2068866826F0770645
:101D700046F07706206886603FE0D5E902136A687E
:101D8000206800F0CFFD2068806840F48040216822
:101D9000886032E0EA686968206800F0D9FD502167
:101DA000206800F0CBFD28E0EA686968206800F050
:101DB000E4FD6021206800F0C1FD1EE0EA6869686A
:101DC000206800F0C5FD4021206800F0B7FD14E058
:101DD0000021206800F0B2FD0FE01021206800F023
:101DE000ADFD0AE02021206800F0A8FD05E03021CB
:101DF000206800F0A3FD00E000BF00BF012084F8D0
:101E00003D0000BF002084F83C0000BF00BF71E728
:101E1000704710B5044620680069C0F34000D8B18F
:101E20002068C068C0F34000B0B16FF002002168C4
:101E30000861012020772068806900F0030018B154
:101E40002046FFF7E5FF05E0204600F0ADF820460C
:101E500000F0ABF80020207720680069C0F3800014
:101E6000D8B12068C068C0F38000B0B16FF0040042
:101E700021680861022020772068806900F44070A2
:101E800018B12046FFF7C4FF05E0204600F08CF8AB
:101E9000204600F08AF80020207720680069C0F30F
:101EA000C000D8B12068C068C0F3C000B0B16FF006
:101EB000080021680861042020772068C06900F0CC
:101EC000030018B12046FFF7A3FF05E0204600F00D
:101ED0006BF8204600F069F8002020772068006940
:101EE000C0F30010D8B12068C068C0F30010B0B1D2
:101EF0006FF0100021680861082020772068C06911
:101F000000F4407018B12046FFF782FF05E020463C
:101F100000F04AF8204600F048F8002020772068BA
:101F2000006900F0010058B12068C06800F00100AD
:101F300030B16FF0010021680861204600F036F8EA
:101F400020680069C0F3C01058B12068C068C0F3B1
:101F5000C01030B16FF08000216808612046FFF7A3
:101F600025FE20680069C0F3801058B12068C06861
:101F7000C0F3801030B16FF0400021680861204646
:101F800000F076F820680069C0F3401058B120686E
:101F9000C068C0F3401030B16FF0200021680861C4
:101FA0002046FFF704FE10BD7047704710B5044689
:101FB0002B492068884201D101F0C2FE2068B0F1AF
:101FC000804F4BD1012027490870274800880A21FB
:101FD00090FBF1F201FB120010B901202149487079
:101FE00021480088642190FBF1F201FB120010B936
:101FF00001201C4988701C48008810B9012019492B
:10200000C8701A48008810B901201649087117488D
:102010000088401C154908800846008842F210716B
:1020200090FBF1F201FB1200104908800E48008875
:10203000401C0D490880084600884FF47A7190FBD7
:10204000F1F201FB1200084908800648D0E902209D
:10205000521C40F100000349C1E9022010BD0000FC
:1020600000040040300500207402002076020020A9
:10207000704770472DE9F0470446206805682068DE
:10208000C668206847694FF00008C14605F00F0890
:10209000B8F1000F0AD105F0200038B106F0200099
:1020A00020B1204600F0A9FCBDE8F087B8F1000F90
:1020B0006DD007F0010018B906F49070002866D0C2
:1020C00005F0010030B106F4807018B1E06B40F00B
:1020D0000100E06305F0040030B107F0010018B121
:1020E000E06B40F00200E06305F0020030B107F061
:1020F000010018B1E06B40F00400E06305F0080057
:1021000030B107F0010018B1E06B40F00800E06367
:10211000E06B68B305F0200028B106F0200010B194
:10212000204600F06AFC20684069C0F38019E06B2B
:1021300000F0080010B9B9F1000F22D0204600F0DD
:102140003CFC2068406900F04000B0B12068406964
:1021500020F0400021684861606B50B11748616B06
:102160004863606BFEF7B0FD10B1606B416B884750
:102170000CE02046FFF77DFF08E02046FFF779FFDF
:1021800004E02046FFF775FF0020E0638CE705F0D0
:10219000800030B106F0800018B1204600F064FDE8
:1021A00082E705F0400030B106F0400018B120464B
:1021B00000F013FC78E700BF76E70000A7290008CD
:1021C00010B504460CB9012010BDA06900B100E0B3
:1021D00000BF94F8390028B9002084F83800204660
:1021E00000F028F8242084F839002068C06820F422
:1021F00000502168C860204600F052FC2068006949
:1022000020F49040216808612068406920F02A008D
:10221000216848612068C06840F400502168C860A7
:102220000020E063202084F8390084F83A00002080
:10223000CAE7000010B586B0044600200290039063
:10224000049005903849206888426BD100BF374818
:10225000806940F48040354988610846806900F40F
:102260008040019000BF00BF00BF0846806940F079
:10227000040088610846806900F00400019000BFF6
:1022800000BF48150290022003900320059002A988
:102290002748FEF787FE4FF48060029000200390ED
:1022A000049002A92248FEF77DFE224822490860D8
:1022B000002048600021204881608021C160002109
:1022C00001614161202181610021C161FEF722FE8F
:1022D00008B1FEF7BEFC00BF17486063446200BF50
:1022E000144814381549086010204860002113482C
:1022F00081608021C1600021016141618161C16112
:10230000FEF708FE08B1FEF7A4FC00BF0B482063EF
:10231000446200BF002211462520FFF762F8252005
:10232000FFF752F806B010BD00380140001002401F
:102330000008014058000240480300208C030020A0
:102340007047704700BFFEE708B500BF0E48406900
:1023500040F001000C4948610846406900F0010066
:10236000009000BF00BF002211460E20FFF739F891
:102370000E20FFF729F8002211460F20FFF731F851
:102380000F20FFF721F808BD0010024000B585B00E
:102390000020019002900390049000BF40488069A3
:1023A00040F010003E4988610846806900F0100046
:1023B000009000BF00BF00BF0846806940F02000C9
:1023C00088610846806900F02000009000BF00BFCF
:1023D00000BF0846806940F00400886108468069B3
:1023E00000F00400009000BF00BF00BF08468069F5
:1023F00040F0080088610846806900F008000090FD
:1024000000BF00BF00224FF4C0412648FEF760FF26
:1024100000224FF678412448FEF75AFF00224FF47D
:1024200009412248FEF754FF4FF4C04001900120BB
:102430000290002003900220049001A91948FEF7A1
:10244000B1FDFC20019000200290039001A91748E3
:10245000FEF7A8FD0320019000200290039001A93F
:102460001148FEF79FFD4FF6784001900120029041
:10247000002003900220049001A90B48FEF792FD72
:102480004FF40940019001200290002003900220A7
:10249000049001A90548FEF785FD05B000BD0000C8
:1024A0000010024000100140000C014000080140F3
:1024B00000B587B00020039004900590069001902D
:1024C00002904FF080401449086047204860002186
:1024D0001148816040F2E731C160002101618161F2
:1024E000FFF797FB08B1FEF7B4FB4FF48050039061
:1024F00003A90948FFF7F3FB08B1FEF7AAFB002088
:102500000190029001A90448FFF752FB08B1FEF7C1
:10251000A0FB07B000BD00008802002000B587B016
:1025200000200390049005900690019002901448BA
:1025300014490860472048600021124881600A2140
:10254000C160002101618161FFF763FB08B1FEF703
:1025500080FB4FF48050039003A90A48FFF7BFFBAC
:1025600008B1FEF776FB00200190029001A9054812
:10257000FFF71EFB08B1FEF76CFB07B000BD0000C3
:1025800000040040C802002010B50B480B49086049
:102590004FF4E1304860002108488160C16001616A
:1025A0000C21416100218161C161FFF709FE08B181
:1025B000FEF74FFB10BD000000380140080300206B
:1025C00000BFFEE77047000002480068C0F3022029
:1025D000704700000CED00E010B5002807DA0A078C
:1025E000140E054A00F00F031B1FD45403E00A0722
:1025F000130E024A135410BD18ED00E000E400E091
:102600007047000008B508490968C9084FF47A7294
:10261000B1FBF2F14143009100BF00BF00994A1E97
:1026200000920029F9D108BD84020020704770B5DE
:1026300005460C46152000F055FB284600F052FBDD
:10264000204600F04FFB70BD10B50446812000F01D
:1026500049FB204600F046FB10BD10B5044644F08F
:10266000840000F03FFB10BD10B50446B32000F01D
:1026700039FB204600F036FB10BD10B5044644F08F
:10268000A40000F02FFB10BD10B50446A22000F0FE
:1026900029FB204600F026FB10BD10B5044644F08F
:1026A000AE0000F01FFB10BD10B50446B22000F0D4
:1026B00019FB204600F016FB10BD10B5B82000F045
:1026C00011FB012000F00EFB112000F00BFB22207B
:1026D00000F008FB322000F005FB432000F002FB75
:1026E000542000F0FFFA652000F0FCFA762000F09C
:1026F000F9FA10BD10B50446AD2000F0F3FA44F02D
:10270000020000F0EFFA10BD10B50446A82000F05A
:10271000E9FA204600F0E6FA10BD10B50446B120F3
:1027200000F0E0FA204600F0DDFA10BD70B5044676
:102730000D46B42000F0D6FA284600F0D3FA202C3B
:1027400006D1B02000F0CEFA44F0080000F0CAFA3A
:1027500070BD10B50446BC2000F0C4FA204600F05D
:10276000C1FA10BD10B50446A02000F0BBFA204607
:1027700000F0B8FA10BD70B505460C46752000F0A3
:10278000B1FA284600F0AEFA204600F0ABFA70BD70
:1027900010B50446A12000F0A5FA204600F0A2FAE8
:1027A00010BD10B50446BE2000F09CFA204600F093
:1027B00099FA10BD10B50446BF2000F093FA44F01A
:1027C000020000F08FFA10BD10B5FEF78DFD10BDB0
:1027D00000B58FB0282105A8FDF7BBFC1421684681
:1027E000FDF7B7FC0120059000040690002007903B
:1027F0000120099002200C90C1030D914FF4E011CB
:102800000E9105A8FEF798FF08B1FEF722FA0F20F7
:10281000009002200190002002904FF4806003900D
:102820000020049002216846FEF72EFE08B1FEF754
:1028300010FA0FB000BD00001148006840F0010020
:102840000F490860084640680E4908400C49486036
:10285000084600680C4908400949086008460068B5
:1028600020F4802008600846406820F4FE0048609C
:102870004FF41F008860C8030449086070470000D7
:10288000001002400000FFF8FFFFF6FE08ED00E038
:1028900010B50248FFF7BDFA10BD00008802002005
:1028A00010B50248FFF7B5FA10BD0000C8020020BD
:1028B00000220268184B984208D0B0F1804F05D032
:1028C000164B984202D0164B984203D122F0700268
:1028D0004B681A43104B984208D0B0F1804F05D096
:1028E0000E4B984202D00E4B984203D122F4407214
:1028F000CB681A4322F080024B691A4302608B684E
:10290000C3620B688362044B984201D10B69036375
:102910000123436170470000002C01400004004087
:102920000008004030B50C460021816821F47F4149
:1029300042EA032525432943816030BD0A46002130
:10294000816821F0700142F00703194381607047EC
:1029500030B50B46144600210022026A056A25F0B4
:1029600001050562816921F0F00141EA041122F0BC
:102970000A021A438161026230BD30B50B4614462B
:1029800000210022056A25F0100505628169026AAE
:1029900021F4704141EA043122F0A00242EA03121C
:1029A0008161026230BD70B505466C6A0020E08529
:1029B000E0842046FFF75DFB70BD0168C96821F423
:1029C00090710268D1600168496921F001010268D3
:1029D0005161202180F83A10704710B504462068F4
:1029E000C06820F040002168C860202084F83900C9
:1029F0002046FFF7A6FC002010BD70B5044694F8F1
:102A00003A0022284AD1A068B0F5805F13D1A56AA8
:102A1000206940B920684068C0F308002880A06A97
:102A2000801CA06219E020684068C0B22880A06ABB
:102A3000401CA06211E0206938B920684068C1B22A
:102A4000A26A501CA062117007E02068406800F084
:102A50007F01A26A501CA0621170E08D401E80B2FE
:102A6000E085C8B92068C06820F020002168C860EF
:102A70002068C06820F480702168C86020684069C0
:102A800020F0010021684861202084F83A002046A7
:102A9000FFF756FC002070BD0020FCE70220FAE79B
:102AA0002DE9F041044600252068006920F44050DB
:102AB000E1680843216808612169A06808436169E9
:102AC000084305432068C06841F20C6188432843ED
:102AD0002168C8602068406920F44070A1690843FB
:102AE000216848615F49206888425CD1FEF7CAFDD1
:102AF00000EBC00101EB001061688900B0FBF1F64A
:102B0000FEF7C0FD00EBC00101EB00106168890019
:102B1000B0FBF1F06421B0FBF1F000EBC00101EB80
:102B20000010A6EB8000322101EB00106421B0FB05
:102B3000F1F000F0F006FEF7A5FD00EBC00101EB9F
:102B4000001061688900B0FBF1F06421B0FBF1F086
:102B500006EB0016FEF796FD00EBC00101EB00103E
:102B600061688900B0FBF1F7FEF78CFD00EBC00156
:102B700001EB001061688900B0FBF1F06421B0FB4B
:102B8000F1F000EBC00101EB0010A7EB8000322157
:102B900001EB00106421B0FBF1F000F00F003044B5
:102BA000216888605BE0FEF75DFD00EBC00101EB92
:102BB000001061688900B0FBF1F6FEF753FD00EBF1
:102BC000C00101EB001061688900B0FBF1F06421E5
:102BD000B0FBF1F000EBC00101EB0010A6EB8000B0
:102BE000322101EB00106421B0FBF1F000F0F0069F
:102BF000FEF738FD00EBC00101EB001061688900B1
:102C0000B0FBF1F06421B0FBF1F006EB0016FEF72B
:102C100029FD00EBC00101EB001061688900B0FBE9
:102C2000F1F7FEF71FFD00EBC00101EB001061683A
:102C30008900B0FBF1F06421B0FBF1F000EBC001C2
:102C400001EB0010A7EB8000322101EB00106421A2
:102C5000B0FBF1F000F00F00304421688860BDE85F
:102C6000F081000000380140014691F83900212828
:102C70002CD18868B0F5805F0FD10A6A1088C0F344
:102C800008000B685860086918B9086A801C086257
:102C900009E0086A401C086205E00B6A581C0862DB
:102CA00018780B685860C88C401E80B2C88458B928
:102CB0000868C06820F080000B68D8600868C068A9
:102CC00040F040000B68D860002070470220FCE70D
:102CD00010B50248FFF7CEF910BD00000803002030
:102CE00000BFFEE770B5044600224FF480511B4838
:102CF000FEF7EEFA00224FF400511848FEF7E8FA0A
:102D000000251DE000224FF480711548FEF7E0FA1F
:102D100004F0800028B10122D1031048FEF7D8FA50
:102D200005E000224FF400410C48FEF7D1FA60069E
:102D3000040E012211020A48FEF7CAFA681CC5B245
:102D4000082DDFDB012251030448FEF7C1FA0122FE
:102D500011030248FEF7BCFA70BD0000000C0140F0
:102D60000008014070B5044600224FF480511A4813
:102D7000FEF7AEFA012251031748FEF7A9FA002523
:102D80001DE000224FF480711448FEF7A1FA04F010
:102D9000800028B10122D1030F48FEF799FA05E01F
:102DA00000224FF400410C48FEF792FA6006040E30
:102DB000012211020948FEF78BFA681CC5B2082DE2
:102DC000DFDB012251030448FEF782FA01221103DE
:102DD0000148FEF77DFA70BD000C0140000801407B
:102DE00070B5044600251DE004F0800028B10122E2
:102DF000D1030E48FEF76CFA05E000224FF40041C3
:102E00000A48FEF765FA6006040E00224FF480714E
:102E10000748FEF75DFA012211020548FEF758FA4D
:102E2000681CC5B2082DDFDB70BD0000000C01403E
:102E3000000801400FB4084B10B504A902AA03987A
:102E400000F0DEF8044602A9002000F070FC2046E5
:102E500010BC5DF814FB00002F37000802E008C822
:102E6000121F08C1002AFAD170477047002001E004
:102E700001C1121F002AFBD1704700002DE9FF5F3E
:102E800082B00021DDE90430020DDDF840B00343DB
:102E900018D044F61050A2F2FF3242431514119894
:102EA00001281FD0A5EB0B00401C5FEA000A4FF081
:102EB00000064E4FDFF83891B046504615D5CAF19E
:102EC000000413E0119801244AA3012801D16FEAFC
:102ED0000B010298119AC0E90031C0E9024206B024
:102EE000BDE8F09FCBF10000DFE704460021404A37
:102EF000491842EB0450CDE9001012E0E00707D07A
:102F000032463B4640464946FDF7A9FA8046894687
:102F100032463B4610461946FDF7A1FA06460F46D3
:102F20006410002CEAD1DDE90401DDE90023BAF1E7
:102F3000000F06DAFDF793FA42464B46FDF78FFA8B
:102F400005E0FDF7FEFA42464B46FDF7FAFA044665
:102F50000E460022284BFDF77BFB03D84FF0FF30D5
:102F6000014607E00022254B20463146FDF7D0F907
:102F7000FDF756FB102409E0002C0ADB0A2200238F
:102F8000FDF75EF9039B30321A55641E50EA0102C8
:102F9000F2D1641C039AC4F111031444119A012A5A
:102FA00003D0012208430DD10AE0084304D00020D9
:102FB0004FF0110B119072E7A3EB0B056D1E0DE0A6
:102FC0005B4504DD4FF0000205F1010504E003DA82
:102FD0004FF00002A5F10105002AECD002981199EA
:102FE000C0E90231C0E9004579E700000000144063
:102FF0000000F03F300000000000F0430000E03F20
:103000002DE9FF4F95B09B468946064600250FE205
:10301000252877D100242746F84A0121059400E0AD
:10302000044316F8013F203B01FA03F01042F7D1A8
:1030300030782A2811D06FF02F033078A0F13002B9
:10304000092A16D8059A44F0020402EB820203EB27
:1030500042021044761C0590EFE759F8042B0592C4
:10306000002A03DA504244F40054059044F002046C
:10307000761C30782E2816D116F8010F44F004047F
:103080002A280DD06FF02F023078A0F13003092BE1
:1030900009D807EB870302EB4303C718761CF3E755
:1030A00059F8047B761C30786C280FD006DC4C284D
:1030B00017D068280DD06A2814D104E0742810D0E5
:1030C0007A280FD10DE044F400140AE044F480148F
:1030D00001E044F440147278824202D104F5801475
:1030E000761C761C307866280BD013DC582877D0F5
:1030F00009DC002875D04528F6D04628F4D04728AA
:103100001AD19DE118E0632835D0642879D065286C
:1031100012D195E1702873D008DC6728F1D06928B6
:103120006FD06E280DD06F2806D1B5E073282CD053
:10313000752875D0782874D05A46179990476D1C19
:1031400075E1C4F30250022809D003280DD0D9F844
:10315000001004280DD00D6009F1040967E1D9F8C9
:103160000010EA17C1E90052F6E7D9F800100D8007
:10317000F2E70D70F0E719F8041B8DF8001000203D
:103180008DF80100EA46012003E059F804AB4FF046
:10319000FF3061074FF0000102D40DE008F101019A
:1031A0008846B9420FDA8045F8DB1AF80810002982
:1031B000F4D108E008F1010188468142FADB1AF8EF
:1031C00008100029F6D105985B46A0EB08072146B8
:1031D0003846179A00F094FA284400EB080507E0F7
:1031E0004DE029E10DE01AF8010B5A461799904776
:1031F000B8F10108F7D25B4621463846179A13E129
:1032000042E00A220092C4F302524FF0000A022A5E
:1032100008D059F804CB032A4FEAEC710AD00DE02C
:1032200029E02AE009F1070121F00702F2E802C1D2
:10323000914609E00FFA8CFC4FEAEC71042A03D1A5
:103240004FFA8CFC4FEAEC71002907DA0A4600219C
:10325000DCF1000C61EB02012D2202E0220504D515
:103260002B228DF80420012203E0E20701D0202266
:10327000F7E7904659E00A2102E010220DE0102104
:103280004FF0000A00910BE010224FF0000A44F0CA
:1032900004040827009203E008224FF0000A00927D
:1032A000C4F30252022A05D059F804CB0021032AA4
:1032B00008D009E009F1070121F00702F2E802C194
:1032C000914605E01FFA8CFC042A01D10CF0FF0C9A
:1032D0004FF00008220728D5702806D0009B83F005
:1032E000100353EA0A0305D00EE040228DF80420B3
:1032F000012208E05CEA010206D030228DF80420A9
:103300008DF8050002229046009B83F0080353EAE3
:103310000A030AD15CEA010201D1620705D5302215
:103320008DF804204FF001087F1E582804D034A0E7
:1033300003900EA802900DE036A0F9E753466046D0
:10334000009AFCF77DFF84460398825C0298401E39
:10335000029002705CEA0100F0D1029806A9081AF6
:1033600000F1200A600702D524F4803400E0012730
:10337000574502DDA7EB0A0000E0002000EB0A0140
:10338000009005984144401A0590E00306D45B463E
:103390002146179A059800F0B3F90544002706E086
:1033A00001A85A46C05D179990476D1C7F1C474580
:1033B000F6DBE0030CD55B462146179A059800F032
:1033C0009FF9054404E030205A46179990476D1C38
:1033D0000099481E00900029F5DC08E00298029947
:1033E0005A460078491C0291179990476D1CBAF112
:1033F0000001AAF1010AF1DC65E1000009280100E1
:10340000303132333435363738396162636465665A
:10341000000000003031323334353637383941421C
:10342000434445460000000000F058F90544761C6E
:10343000307800287FF4ECAD19B02846BDE8F08F55
:10344000620700D4062709F1070222F0070CFCE806
:103450000223E14603F000485FEA080C02D00FF2B5
:10346000702C0DE05FEA045C02D50FF2682C07E0D7
:103470005FEAC47C02D00FF2602C01E0AFF2700C66
:103480004FF0FF3823F00043CDF850C065280CD032
:1034900006DC452809D046281DD047283DD13DE00F
:1034A000662818D067287ED138E00021112F01DB73
:1034B000112000E0781CCDE9000106A90EA8FFF755
:1034C000DDFCDDE90F010E9A03910021009207F166
:1034D000010A04914DE04FF000400097CDE9011042
:1034E00006A90EA8FFF7CAFCDDE90F0203920E9BA6
:1034F00011990022DDF80CA00093049211B9791CF7
:1035000000EB010AB7EB0A0004D4C0F1FF3007F169
:10351000010A0490AAEB0700019044E0012F00DAB1
:1035200001270021112F01DD112000E03846CDE9EF
:10353000000106A90EA8FFF7A1FCDDE90F010E9A14
:103540000391002104910092BA4621070CD40399FB
:10355000514500DA8A46BAF1010F05DD009AAAF159
:103560000101515C302908D0B84202DA10F1040F91
:1035700006DA0121CDE9011015E0AAF10101E9E720
:10358000002805DC049901440491AAEB000102E043
:10359000411C514500DD8A460499401A401C0190A7
:1035A0004FF000400290200704D40198504501DB01
:1035B000CDF8048000208DF84F0002980DF14F07E0
:1035C000B0F1004F25D02B200E9002984FF002084A
:1035D00000280CDA404202902D200E9007E00A21CC
:1035E0000298FCF717FE3031029007F8011DB8F180
:1035F0000001A8F10108F2DC02980028EFD1791E41
:103600000E980870307800F0200040F0450007F870
:10361000020D12A8C01B00F107081498007800B131
:10362000012000EB0A01019801EBE071059841448B
:10363000401A401E0590E00306D45B462146179AC7
:10364000059800F05DF805441498007818B15A46C2
:10365000179990476D1CE00324D55B462146179AC5
:10366000059800F04DF805441CE00498002807DB9D
:10367000DDE90301884203DD0098405C179901E011
:10368000179930205A469047049805F10105401CCF
:1036900004900198401E019004D12E205A4617999B
:1036A00090476D1CBAF10001AAF1010ADDDC05E0CA
:1036B00017F8010B5A46179990476D1CB8F1000195
:1036C000A8F10108F4DC5B462146179A0598ABE6A1
:1036D0002D0000002B000000200000002DE9F0412B
:1036E000044600251E461746880404D405E03946E2
:1036F0002020B0476D1C641EF9D52846BDE8F08136
:103700002DE9F041044600251E469046C80301D528
:10371000302700E02027880404D505E041463846DC
:10372000B0476D1C641EF9D52846BDE8F0810A68D3
:10373000531C0B601070704770B5002401221102F9
:103740001548FDF7C5FDFDF7ADFA00251DE0012286
:10375000D1021248FDF7BCFD00224FF480710E48E3
:10376000FDF7B6FD6006040E4FF400610B48FDF74F
:10377000A7FD10B1601CC4B200E0E4B20122110246
:103780000548FDF7A5FD681CC5B2082DDFDBFDF778
:1037900077FA204670BD000000080140000C01408F
:1037A0002DE9F04780460D4616461F46DDF820906D
:1037B00000224FF480611248FDF78AFD00224FF489
:1037C00080711048FDF784FD0320FFF709FB404698
:1037D000FFF706FB2846FFF703FB3046FFF700FB29
:1037E000002404E0FFF7A8FF3855601CC4B24C4524
:1037F000F8DB012291020248FDF76AFDBDE8F0877F
:10380000000C014000080140FDF77AFDFEF7E0FFE3
:10381000FEF7BCFDFEF798FDFEF7B6FEFEF748FE8C
:10382000FEF77CFE00200F49087000F01DF800F044
:103830003DF900F083FA00F0C7FB002407E0002008
:1038400000F0A2F94FF47A70FDF798FB641C142C79
:10385000F5DB01200349087003E000F007F800F0F1
:10386000F5FAFAE700000020704700002DE9F0416A
:10387000824800780B287DD2DFE800F006072F3061
:1038800057588081A9AAD200CCE00122D1037C48FC
:10389000FDF71EFD7B49D1E902017B4A03C27A484C
:1038A000D0E900217948D0E90030D31A61EB00015A
:1038B000774800784FF4FA525043C217181A9141D2
:1038C0000AD36E480078401C6C49087000224FF4FF
:1038D00000416B48FDF7FCFCA4E0A3E001220821B5
:1038E0006C48FDF7F5FC6748D0E90210664AC2E96A
:1038F0000010114603C9654AD2E90032C31A61EBD0
:103900000201634800784FF4FA525043C217181A64
:10391000914109D359480078401C58490870002249
:1039200008215C48FDF7D4FC7CE07BE001221021FB
:103930005848FDF7CDFC5348D0E90210524AC2E97D
:103940000010114603C9514B14CB831A61EB0401DB
:103950004F4800784FF4FA525043C217181A914159
:103960000BD346480078401C4449087000221021BF
:10397000484800E055E0FDF7ABFC53E052E001227F
:1039800020214448FDF7A4FC3E48D0E902103E4AFD
:10399000C2E900101046D0E900213C48D0E90030CF
:1039A000D31A61EB00013A4800784FF4FA525043C1
:1039B000C217181A914109D330480078401C2F498A
:1039C0000870002220213348FDF782FC2AE029E01C
:1039D000012240212F48FDF77BFC2A48D0E9021044
:1039E000294AC2E900101046D0E900312748D0E941
:1039F00000209B1A61EB0001254800784FF4FA5231
:103A00005043C217181A914109D31C480078401C32
:103A10001A490870002240211E48FDF759FC01E0B8
:103A200000E000BF00BF1C48007820B300201A4906
:103A300008701A480078012804D10020174908703E
:103A4000FCF7F8FE12490878FCF7CCFB07464FF06C
:103A50008041FCF789FB0446FCF7C9FB05462A4672
:103A60000B460FA11048FFF7E5F90F4B14220C216C
:103A70003620FDF733F8BDE8F08100005C0200203D
:103A8000000801403005002068020020600200208C
:103A900050020020000C01405B0200207002002058
:103AA00025322E3166204C00B004002010B50022D3
:103AB0004FF480412E48FDF70BFC0A20FDF75EFA1B
:103AC000012291032A48FDF703FC0020FEF7E5FDE3
:103AD0009120FEF7C9FD3F20FEF716FE4C20FEF7B1
:103AE000D3FD0020FEF754FE5020FEF73BFE0020E1
:103AF000FEF700FE7F20FEF7A7FD0220FEF7ADFDDA
:103B0000FEF7DBFD4620FEF7CFFD2220FEF705FE87
:103B10001020FEF71EFE07212020FEF707FE0220E0
:103B2000FEF73FFE0C20FEF745FE0020FEF7A5FD48
:103B30000020FDF78FF80120FEF7AFFD0DA10E4824
:103B4000FFF778F90C4B142208213420FCF7C6FF4C
:103B50000020FCF76FFE012208A10748FFF76AF971
:103B6000054B142208213420FCF7B8FF10BD0000DB
:103B7000000C014061000000500400204C6F6164A3
:103B8000696E672E2E2E2E0010B504460020FCF71D
:103B900051FE21490868C11700EB91718910A0EB13
:103BA000810119B91DA12048FFF744F91A49086895
:103BB000C11700EB91718910A0EB8101012903D19C
:103BC0001AA11948FFF736F913490868C11700EB25
:103BD00091718910A0EB8101022903D116A112482D
:103BE000FFF728F90C490868C11700EB917189109B
:103BF000A0EB8101032903D112A10B48FFF71AF9A9
:103C0000094B142208213420FCF768FF02480068A1
:103C1000401C0149086010BD4C0200204C6F6164DB
:103C2000696E672E00000000900400204C6F6164F4
:103C3000696E672E2E0000004C6F6164696E672EFE
:103C40002E2E00004C6F6164696E672E2E2E2E00A2
:103C50001E49097801B970471D49097821B11C49ED
:103C600009780A2900D0F6E701211A4A1170B0B18B
:103C700019491A4A1278895C092905DB0921164A73
:103C8000164B1B78D1541FE01349144A1278895CF3
:103C9000491CCAB21049114B1B78CA5414E00E4992
:103CA0000E4A1278895C002905DC00210A4A0B4B78
:103CB0001B78D15408E00849084A1278895C491EEB
:103CC000054A064B1B78D15400BFC4E70000002012
:103CD0005C0200205B020020500200205A020020FB
:103CE000704700001149097801B97047D8B1104AEE
:103CF000117801EBD1725210A1EB42029AB90C4932
:103D00000978491C0A4A1170114609780A2291FB68
:103D1000F2F302FB1311064A11700649D1E90221A0
:103D2000054BC3E9002100BFDFE7000000000020D1
:103D30005C02002030050020600200207047000077
:103D400010B504213E48FDF7BBFA20B13D4800788C
:103D5000401C3C49087008213948FDF7B1FA30B1E0
:103D6000384890F82000401C364981F82000102186
:103D70003348FDF7A5FA30B1324890F84000401CB6
:103D8000304981F8400030480078401C2E490870C6
:103D900008460078FA2190FBF1F201FB12002A4953
:103DA000087008460078002849D100BF45E0254941
:103DB00001EB40110978234A02EB4012517021496E
:103DC00001EB40110978491C1E4A02EB40121170A8
:103DD00000211C4A02EB401211701A4901EB4011FC
:103DE000497864290FDB174901EB40114978C8294C
:103DF00009DC144901EB40118968491C114A02EBA6
:103E00004012916018E00F4901EB40114978642994
:103E100009DA0C4901EB4011C968491C094A02EB57
:103E20004012D16008E0074901EB40114968491C84
:103E3000044A02EB40125160401C0328B7DB10BD5E
:103E400000080140D00400207202002010B50020BC
:103E50002DE05C4901EB4011C9685A4A02EB40125F
:103E60009269914204D00321564A02EB4012117725
:103E7000544901EB40114968524A02EB4012126961
:103E8000914204D001214F4A02EB401211774D4973
:103E900001EB401189684B4A02EB40125269914292
:103EA00004D00221474A02EB40121177401C03283C
:103EB000CFDB002018E0434901EB4011C968414ABB
:103EC00002EB401291613F4901EB401149683D4AC4
:103ED00002EB401211613B4901EB40118968394AFC
:103EE00002EB40125161401C0328E4DB3548007F9F
:103EF000012807D13348407F012803D00120FFF774
:103F0000A7FE0FE02F48007F032807D12D48407FF0
:103F1000032803D00020FFF79BFE03E02948007F21
:103F2000284948772748007F26494877084690F86F
:103F30003C00012808D1084690F83D00012803D034
:103F40000120FFF7CDFE12E01E4890F83C00032848
:103F500008D11C4890F83D00032803D00020FFF74B
:103F6000BFFE04E0174890F83C1080F83D1015485B
:103F700090F83C1080F83D1090F85C00012808D1C2
:103F8000104890F85D00012803D00120FFF7AAFE39
:103F900012E00C4890F85C00032808D1094890F81A
:103FA0005D00032803D00020FFF79CFE04E00548D5
:103FB00090F85C1080F85D10024890F85C1080F872
:103FC0005D1010BDD004002010B50648FDF778FE46
:103FD0000548FDF775FE05480021016041608160DC
:103FE000C16010BDC80200208802002030050020FA
:103FF00000BF011EA0F10102D0B2FAD1704700004B
:104000000000000000000102030406070809000088
:1040100000000102030400003840000800000020F6
:1040200088020000A0070008544100088802002010
:10403000B80600006C2E0008611BF010012AFF0575
:104040000215F01B0F04012AFF0502130F18094087
:1040500040405F55555575041A5F0C091121080C35
:1040600011200F094989790909090F201F112FFE15
:1040700002424ACA4A0304134202FE000E14FF40E1
:10408000504C4340404F50505C40FF1BF888012A81
:10409000FF050215F81B1F08012A7F200B109F80C7
:1040A000E23B808201000916E2A2928A8682808029
:1040B000041840807F172424A4FEA3221B22CCAA2C
:1040C000011415080601FF2B0104010511FF02026E
:1040D000025808101010FF109008C3021108080FB2
:1040E000120444827F01808040432C10284681A026
:1040F0001AF0431944190149DE3A0F6C2905420FA1
:104100001808FE0212929292F204341202FE1CFF70
:104110004048017F4F484A4C4840B274C03FC037C6
:10412000804020100C032E030C102040702BFE2228
:10413000011AE204523E600DFF4121110101030DFD
:10414000112141F1021201091113C9156A1010045D
:0441500000A24A047B
:04000005080000ED02
:00000001FF
